:1000000029C043C042C041C040C03FC03EC03DC007
:100010003CC03BC03AC039C038C037C036C035C01C
:1000200034C033C032C031C030C02FC02EC02DC04C
:100030002CC02BC0DBC0E0C0E6C0ECC0F4C0F7C0F1
:10004000F8C0F9C00DC111C115C119C11DC121C12F
:1000500025C129C111241FBECFEFD4E0DEBFCDBF23
:1000600021E0A4E0B1E001C01D92AE31B207E1F79A
:1000700011E0A0E0B1E0E0E3F6E002C005900D92EF
:10008000A430B107D9F70BD0D1C2BACF80E090E04D
:100090004DD241D23CD2BC0180E090E04CC2CF9323
:1000A000DF9300D000D0CDB7DEB78FEF84B98FE0FB
:1000B00087B98AEF8AB91092800084E0809381002A
:1000C000E5DF23E131E03A83298304E111E0A12C4B
:1000D000B12CB8E0EB2EF12C1AD2B701A7D18F5F6B
:1000E000E981FA81808313D2B701A0D18F5FF80133
:1000F0008083A4E16A2EA1E07A2EC12CD12CCA14EF
:10010000DB0431F1430131E0831A9108E981FA817E
:100110009081F4018081981314C0F8019081F3015B
:10012000808198130EC0F3D1B70180D18F5FE98130
:10013000FA818083ECD1B70179D18F5FF801808398
:10014000E5CFFFEFCF1ADF0A22E0620E711CD7CF96
:1001500056014FEFA41AB40A29813A812E5F3F4F0E
:100160003A8329830E5F1F4F35E0A316B10409F0CF
:10017000B3CF44E051E05C834B83AEE0B1E089E073
:1001800091E09A83898384E191E04AEF5FE3EAEDAD
:100190002E2EFAEBAF2E71E012E004E028E0F22EF2
:1001A00030E1E32E60E2D62EE0E4CE2EF0E8BF2E62
:1001B0001092850010928400209184003091850077
:1001C00020363A4E10F4A895F7CF9C012150310902
:1001D000F9016080712C93012150310928303105DB
:1001E00088F5265E3F4F2F933F93089558B95C934F
:1001F000FAE7FBB92AE713C058B95C93ABB8E981B9
:10020000FA81A0821FC058B95C932BB8E981FA81AA
:10021000208218C058B95C93FAEEFBB92AEEE98146
:10022000FA8120830FC037E338B93C9307C0FBE362
:1002300003C0FDE301C0FEE3F8B9FC934BB9E981CB
:10024000FA814083FC016080712C930121503109B7
:100250002830310560F52E5D3F4F2F933F93089571
:10026000B5B8EB81FC81B08222C0C5B8EB81FC81BE
:10027000C0821DC0D5B8EB81FC81D08218C0E5B822
:10028000EB81FC81E08213C0F5B8EB81FC81F08248
:100290000EC005B9EB81FC81008309C015B9EB8163
:1002A000FC81108304C075B9EB81FC8170830296D8
:1002B0002B813C812F5F3F4F3C832B831196E9813B
:1002C000FA813196FA83E983F1E080329F0709F0E1
:1002D0006FCF109281008FE388B99AEF9BB98FEFAF
:1002E00084B92FE027B99AB991E095B99EEF98B9F2
:1002F0008BB986B190E080959095F4E095958795BF
:10030000FA95E1F7682F637060931D01789481E09E
:1003100090E020E030E0AEE0BA2EBFE3AB2E1AEE64
:1003200001E44AEFF42E5EE3E52EDD24D3947EEF64
:10033000C72E7FEFB0E3AAE0A895A2014F5C57401B
:100340004133584F28F04FEF441A540A462F24C027
:1003500046B150E040955095E4E055954795EA95B3
:10036000E1F7437050911D015417C1F03394FEE141
:10037000F31510F440931D0140911D01641751F0D5
:10038000423071F4019689309105B9F4FBB8E8B8B0
:1003900081E090E0412C512C642FCECF312CECCF5A
:1003A000433011F14130B1F755B1503811F445B92E
:1003B000F1CF55B1550F55B9EDCF853091053CF4CE
:1003C00058B1550F58B958B1502758B9E3CF8530B7
:1003D000910519F4A8B81BB9DDCF5BB1550F5BB916
:1003E0005BB15B255BB9D6CF68B1F901E25FFE4F27
:1003F00050816513CFCF6BB1F901E75FFE4F50819C
:100400006513C8CF65B1F901EC5FFE4F50816513EC
:10041000C1CF2F5F3F4FD5B8C8B87BB92530310564
:1004200009F0B6CFB8B9ABB975B9B2CF97FB072E03
:1004300016F4009406D077FD08D00BD007FC05D049
:100440003EF4909581959F4F0895709561957F4FEB
:100450000895AA1BBB1B51E107C0AA1FBB1FA6170B
:10046000B70710F0A61BB70B881F991F5A95A9F75D
:1004700080959095BC01CD0108958F929F92AF9287
:10048000BF92CF92DF92EF92FF92CF93DF93EC0176
:10049000688179818A819B8161157105810591054A
:1004A00021F464E279ED8BE597E02DE133EF41E053
:1004B00050E062D049015A019B01AC01A7EAB1E4C6
:1004C00077D06B017C01ACEEB4EFA50194017CD038
:1004D000C60ED71EE81EF91EF7FE06C081E0C81A38
:1004E000D108E10880E8F80AC882D982EA82FB8252
:1004F000C6019F77DF91CF91FF90EF90DF90CF9073
:10050000BF90AF909F908F900895B7DF089580E0DF
:1005100091E0B3DF0895A0E0B0E0809300019093F4
:100520000101A0930201B09303010895A8E1B0E096
:1005300042E050E005C012D0272F11C0DC01CB01F2
:10054000FC01F999FECF06C0F2BDE1BDF89A3196E3
:1005500000B40D9241505040B8F70895262FF999F4
:10056000FECF1FBA92BD81BD20BD0FB6F894FA9A96
:10057000F99A0FBE01960895052E97FB16F4009484
:100580000FD057FD05D024D007FC02D046F408C098
:1005900050954095309521953F4F4F4F5F4F0895AF
:1005A00090958095709561957F4F8F4F9F4F0895DF
:1005B00031D0A59F900DB49F900DA49F800D911DEB
:1005C00011240895B7FFF4CFF3DF821B930B089536
:1005D000A1E21A2EAA1BBB1BFD010DC0AA1FBB1F47
:1005E000EE1FFF1FA217B307E407F50720F0A21BB9
:1005F000B30BE40BF50B661F771F881F991F1A9426
:1006000069F760957095809590959B01AC01BD014F
:10061000CF010895A29FB001B39FC001A39F01D055
:10062000B29F700D811D1124911D0895F894FFCF84
:0406300001000000C5
:00000001FF
